{
  "_format": "hh-sol-artifact-1",
  "contractName": "Park2Earn",
  "sourceName": "contracts/Park2Earn.sol",
  "abi": [
    {
      "inputs": [
        {
          "internalType": "address",
          "name": "aaveLendingPool",
          "type": "address"
        }
      ],
      "stateMutability": "nonpayable",
      "type": "constructor"
    },
    {
      "anonymous": false,
      "inputs": [
        {
          "indexed": false,
          "internalType": "uint256",
          "name": "privateGoodId",
          "type": "uint256"
        }
      ],
      "name": "CreatePrivateGood",
      "type": "event"
    },
    {
      "anonymous": false,
      "inputs": [
        {
          "indexed": false,
          "internalType": "uint256",
          "name": "promotionId",
          "type": "uint256"
        }
      ],
      "name": "CreatePromotion",
      "type": "event"
    },
    {
      "anonymous": false,
      "inputs": [
        {
          "indexed": true,
          "internalType": "address",
          "name": "previousOwner",
          "type": "address"
        },
        {
          "indexed": true,
          "internalType": "address",
          "name": "newOwner",
          "type": "address"
        }
      ],
      "name": "OwnershipTransferred",
      "type": "event"
    },
    {
      "anonymous": false,
      "inputs": [
        {
          "indexed": false,
          "internalType": "address",
          "name": "staker",
          "type": "address"
        },
        {
          "indexed": false,
          "internalType": "uint256",
          "name": "amount",
          "type": "uint256"
        },
        {
          "indexed": false,
          "internalType": "uint256",
          "name": "promotionId",
          "type": "uint256"
        }
      ],
      "name": "StakedTokens",
      "type": "event"
    },
    {
      "anonymous": false,
      "inputs": [
        {
          "indexed": false,
          "internalType": "address",
          "name": "staker",
          "type": "address"
        },
        {
          "indexed": false,
          "internalType": "uint256",
          "name": "amount",
          "type": "uint256"
        }
      ],
      "name": "WithdrawnTokens",
      "type": "event"
    },
    {
      "inputs": [
        {
          "internalType": "address",
          "name": "recipient",
          "type": "address"
        },
        {
          "internalType": "uint256",
          "name": "promotionId",
          "type": "uint256"
        },
        {
          "internalType": "string",
          "name": "title",
          "type": "string"
        },
        {
          "internalType": "string",
          "name": "description",
          "type": "string"
        }
      ],
      "name": "createPrivateGood",
      "outputs": [],
      "stateMutability": "nonpayable",
      "type": "function"
    },
    {
      "inputs": [
        {
          "internalType": "address",
          "name": "token",
          "type": "address"
        },
        {
          "internalType": "uint256",
          "name": "startTime",
          "type": "uint256"
        },
        {
          "internalType": "uint256",
          "name": "length",
          "type": "uint256"
        },
        {
          "internalType": "string",
          "name": "title",
          "type": "string"
        },
        {
          "internalType": "string",
          "name": "description",
          "type": "string"
        }
      ],
      "name": "createPromotion",
      "outputs": [],
      "stateMutability": "nonpayable",
      "type": "function"
    },
    {
      "inputs": [
        {
          "internalType": "address",
          "name": "asset",
          "type": "address"
        },
        {
          "internalType": "uint256",
          "name": "amount",
          "type": "uint256"
        },
        {
          "internalType": "uint16",
          "name": "referralCode",
          "type": "uint16"
        }
      ],
      "name": "depositAave",
      "outputs": [],
      "stateMutability": "nonpayable",
      "type": "function"
    },
    {
      "inputs": [
        {
          "internalType": "uint256",
          "name": "promotionId",
          "type": "uint256"
        },
        {
          "internalType": "address",
          "name": "token",
          "type": "address"
        },
        {
          "internalType": "uint256",
          "name": "amount",
          "type": "uint256"
        }
      ],
      "name": "distributeWinners",
      "outputs": [],
      "stateMutability": "nonpayable",
      "type": "function"
    },
    {
      "inputs": [
        {
          "internalType": "address",
          "name": "staker",
          "type": "address"
        }
      ],
      "name": "getAmountStaked",
      "outputs": [
        {
          "internalType": "uint256",
          "name": "amount",
          "type": "uint256"
        }
      ],
      "stateMutability": "view",
      "type": "function"
    },
    {
      "inputs": [],
      "name": "getLatestPromotion",
      "outputs": [
        {
          "components": [
            {
              "internalType": "address",
              "name": "creator",
              "type": "address"
            },
            {
              "internalType": "uint256",
              "name": "createdAt",
              "type": "uint256"
            },
            {
              "internalType": "address",
              "name": "recipient",
              "type": "address"
            },
            {
              "internalType": "uint256",
              "name": "promotionId",
              "type": "uint256"
            },
            {
              "internalType": "string",
              "name": "title",
              "type": "string"
            },
            {
              "internalType": "string",
              "name": "description",
              "type": "string"
            }
          ],
          "internalType": "struct Park2Earn.PrivateGood",
          "name": "",
          "type": "tuple"
        }
      ],
      "stateMutability": "view",
      "type": "function"
    },
    {
      "inputs": [
        {
          "internalType": "uint256",
          "name": "id",
          "type": "uint256"
        }
      ],
      "name": "getPrivateGood",
      "outputs": [
        {
          "components": [
            {
              "internalType": "address",
              "name": "creator",
              "type": "address"
            },
            {
              "internalType": "uint256",
              "name": "createdAt",
              "type": "uint256"
            },
            {
              "internalType": "address",
              "name": "recipient",
              "type": "address"
            },
            {
              "internalType": "uint256",
              "name": "promotionId",
              "type": "uint256"
            },
            {
              "internalType": "string",
              "name": "title",
              "type": "string"
            },
            {
              "internalType": "string",
              "name": "description",
              "type": "string"
            }
          ],
          "internalType": "struct Park2Earn.PrivateGood",
          "name": "",
          "type": "tuple"
        }
      ],
      "stateMutability": "view",
      "type": "function"
    },
    {
      "inputs": [],
      "name": "getPrivateGoodsCount",
      "outputs": [
        {
          "internalType": "uint256",
          "name": "count",
          "type": "uint256"
        }
      ],
      "stateMutability": "view",
      "type": "function"
    },
    {
      "inputs": [
        {
          "internalType": "uint256",
          "name": "id",
          "type": "uint256"
        }
      ],
      "name": "getPromotion",
      "outputs": [
        {
          "components": [
            {
              "internalType": "address",
              "name": "creator",
              "type": "address"
            },
            {
              "internalType": "contract IERC20",
              "name": "token",
              "type": "address"
            },
            {
              "internalType": "uint256",
              "name": "createdAt",
              "type": "uint256"
            },
            {
              "internalType": "uint256",
              "name": "startTime",
              "type": "uint256"
            },
            {
              "internalType": "uint256",
              "name": "promoLength",
              "type": "uint256"
            },
            {
              "internalType": "string",
              "name": "title",
              "type": "string"
            },
            {
              "internalType": "string",
              "name": "description",
              "type": "string"
            }
          ],
          "internalType": "struct Park2Earn.Promotion",
          "name": "",
          "type": "tuple"
        }
      ],
      "stateMutability": "view",
      "type": "function"
    },
    {
      "inputs": [
        {
          "internalType": "uint256",
          "name": "id",
          "type": "uint256"
        }
      ],
      "name": "getPromotionToken",
      "outputs": [
        {
          "internalType": "contract IERC20",
          "name": "token",
          "type": "address"
        }
      ],
      "stateMutability": "view",
      "type": "function"
    },
    {
      "inputs": [],
      "name": "getPromotionsCount",
      "outputs": [
        {
          "internalType": "uint256",
          "name": "count",
          "type": "uint256"
        }
      ],
      "stateMutability": "view",
      "type": "function"
    },
    {
      "inputs": [
        {
          "internalType": "uint256",
          "name": "id",
          "type": "uint256"
        }
      ],
      "name": "isPromotionExpired",
      "outputs": [
        {
          "internalType": "bool",
          "name": "isExpired",
          "type": "bool"
        }
      ],
      "stateMutability": "view",
      "type": "function"
    },
    {
      "inputs": [
        {
          "internalType": "address",
          "name": "token",
          "type": "address"
        },
        {
          "internalType": "uint256",
          "name": "promotionId",
          "type": "uint256"
        }
      ],
      "name": "isPromotionToken",
      "outputs": [
        {
          "internalType": "bool",
          "name": "",
          "type": "bool"
        }
      ],
      "stateMutability": "view",
      "type": "function"
    },
    {
      "inputs": [],
      "name": "owner",
      "outputs": [
        {
          "internalType": "address",
          "name": "",
          "type": "address"
        }
      ],
      "stateMutability": "view",
      "type": "function"
    },
    {
      "inputs": [],
      "name": "renounceOwnership",
      "outputs": [],
      "stateMutability": "nonpayable",
      "type": "function"
    },
    {
      "inputs": [
        {
          "internalType": "uint256",
          "name": "promotionId",
          "type": "uint256"
        },
        {
          "internalType": "uint256[]",
          "name": "winners",
          "type": "uint256[]"
        }
      ],
      "name": "setPromotionWinners",
      "outputs": [],
      "stateMutability": "nonpayable",
      "type": "function"
    },
    {
      "inputs": [
        {
          "internalType": "address",
          "name": "token",
          "type": "address"
        },
        {
          "internalType": "uint256",
          "name": "amount",
          "type": "uint256"
        },
        {
          "internalType": "uint256",
          "name": "promotionId",
          "type": "uint256"
        }
      ],
      "name": "stake",
      "outputs": [],
      "stateMutability": "nonpayable",
      "type": "function"
    },
    {
      "inputs": [
        {
          "internalType": "address",
          "name": "newOwner",
          "type": "address"
        }
      ],
      "name": "transferOwnership",
      "outputs": [],
      "stateMutability": "nonpayable",
      "type": "function"
    },
    {
      "inputs": [
        {
          "internalType": "address",
          "name": "asset",
          "type": "address"
        },
        {
          "internalType": "uint256",
          "name": "amount",
          "type": "uint256"
        }
      ],
      "name": "withdrawAave",
      "outputs": [],
      "stateMutability": "nonpayable",
      "type": "function"
    },
    {
      "inputs": [
        {
          "internalType": "uint256",
          "name": "amount",
          "type": "uint256"
        },
        {
          "internalType": "uint256",
          "name": "promotionId",
          "type": "uint256"
        }
      ],
      "name": "withdrawStaked",
      "outputs": [],
      "stateMutability": "nonpayable",
      "type": "function"
    }
  ],
  "bytecode": "0x60806040523480156200001157600080fd5b50604051620038e3380380620038e38339818101604052810190620000379190620001d5565b620000576200004b6200009f60201b60201c565b620000a760201b60201c565b80600160006101000a81548173ffffffffffffffffffffffffffffffffffffffff021916908373ffffffffffffffffffffffffffffffffffffffff1602179055505062000207565b600033905090565b60008060009054906101000a900473ffffffffffffffffffffffffffffffffffffffff169050816000806101000a81548173ffffffffffffffffffffffffffffffffffffffff021916908373ffffffffffffffffffffffffffffffffffffffff1602179055508173ffffffffffffffffffffffffffffffffffffffff168173ffffffffffffffffffffffffffffffffffffffff167f8be0079c531659141344cd1fd0a4f28419497f9722a3daafe3b4186f6b6457e060405160405180910390a35050565b600080fd5b600073ffffffffffffffffffffffffffffffffffffffff82169050919050565b60006200019d8262000170565b9050919050565b620001af8162000190565b8114620001bb57600080fd5b50565b600081519050620001cf81620001a4565b92915050565b600060208284031215620001ee57620001ed6200016b565b5b6000620001fe84828501620001be565b91505092915050565b6136cc80620002176000396000f3fe608060405234801561001057600080fd5b506004361061012c5760003560e01c80637891c043116100ad578063dcc09bb711610071578063dcc09bb71461032b578063e07fd9d314610347578063e1ce329b14610365578063f2fde38b14610395578063ff4517d9146103b15761012c565b80637891c043146102895780638da5cb5b146102a55780638ef38a30146102c3578063c6d74d71146102df578063c922615a1461030f5761012c565b80635104c819116100f45780635104c819146101e7578063592e183a146102175780635f4b712914610233578063715018a61461026357806373e473061461026d5761012c565b80630c51b88f146101315780630d2709da1461014d57806314fdecca1461016b578063168eafc11461019b57806335f96da8146101cb575b600080fd5b61014b60048036038101906101469190612228565b6103cf565b005b61015561060e565b604051610162919061228a565b60405180910390f35b610185600480360381019061018091906122a5565b610618565b604051610192919061248b565b60405180910390f35b6101b560048036038101906101b091906124ad565b610839565b6040516101c29190612508565b60405180910390f35b6101e560048036038101906101e09190612523565b6108a8565b005b61020160048036038101906101fc9190612563565b610d0d565b60405161020e919061228a565b60405180910390f35b610231600480360381019061022c9190612590565b610d59565b005b61024d600480360381019061024891906122a5565b61100a565b60405161025a91906125f2565b60405180910390f35b61026b611020565b005b61028760048036038101906102829190612755565b611034565b005b6102a3600480360381019061029e91906124ad565b6110b1565b005b6102ad611201565b6040516102ba91906127c0565b60405180910390f35b6102dd60048036038101906102d89190612815565b61122a565b005b6102f960048036038101906102f491906122a5565b6114f8565b60405161030691906128f8565b60405180910390f35b610329600480360381019061032491906129cf565b61170f565b005b61034560048036038101906103409190612a6e565b611a03565b005b61034f611d44565b60405161035c919061228a565b60405180910390f35b61037f600480360381019061037a91906122a5565b611d4e565b60405161038c9190612508565b60405180910390f35b6103af60048036038101906103aa9190612563565b611d9d565b005b6103b9611e21565b6040516103c691906128f8565b60405180910390f35b6103d881611d4e565b610417576040517f08c379a000000000000000000000000000000000000000000000000000000000815260040161040e90612b7e565b60405180910390fd5b6104218382610839565b610460576040517f08c379a000000000000000000000000000000000000000000000000000000000815260040161045790612bea565b60405180910390fd5b600082116104a3576040517f08c379a000000000000000000000000000000000000000000000000000000000815260040161049a90612c56565b60405180910390fd5b6104f882600760003373ffffffffffffffffffffffffffffffffffffffff1673ffffffffffffffffffffffffffffffffffffffff16815260200190815260200160002060000154611e3990919063ffffffff16565b600760003373ffffffffffffffffffffffffffffffffffffffff1673ffffffffffffffffffffffffffffffffffffffff168152602001908152602001600020600001819055508273ffffffffffffffffffffffffffffffffffffffff166323b872dd3330856040518463ffffffff1660e01b815260040161057b93929190612c76565b602060405180830381600087803b15801561059557600080fd5b505af11580156105a9573d6000803e3d6000fd5b505050506040513d601f19601f820116820180604052508101906105cd9190612cd9565b507fb7ae71bd615e1d1e5d496e36876dd8e9dd2842ba7f262d351041ceb43eae40cf33838360405161060193929190612d06565b60405180910390a1505050565b6000600354905090565b610620611fc5565b6000600260008481526020019081526020016000206040518060e00160405290816000820160009054906101000a900473ffffffffffffffffffffffffffffffffffffffff1673ffffffffffffffffffffffffffffffffffffffff1673ffffffffffffffffffffffffffffffffffffffff1681526020016001820160009054906101000a900473ffffffffffffffffffffffffffffffffffffffff1673ffffffffffffffffffffffffffffffffffffffff1673ffffffffffffffffffffffffffffffffffffffff16815260200160028201548152602001600382015481526020016004820154815260200160058201805461071a90612d6c565b80601f016020809104026020016040519081016040528092919081815260200182805461074690612d6c565b80156107935780601f1061076857610100808354040283529160200191610793565b820191906000526020600020905b81548152906001019060200180831161077657829003601f168201915b505050505081526020016006820180546107ac90612d6c565b80601f01602080910402602001604051908101604052809291908181526020018280546107d890612d6c565b80156108255780601f106107fa57610100808354040283529160200191610825565b820191906000526020600020905b81548152906001019060200180831161080857829003601f168201915b505050505081525050905080915050919050565b60008273ffffffffffffffffffffffffffffffffffffffff166002600084815260200190815260200160002060010160009054906101000a900473ffffffffffffffffffffffffffffffffffffffff1673ffffffffffffffffffffffffffffffffffffffff1614905092915050565b6108b181611d4e565b156108f1576040517f08c379a00000000000000000000000000000000000000000000000000000000081526004016108e890612dea565b60405180910390fd5b60008211610934576040517f08c379a000000000000000000000000000000000000000000000000000000000815260040161092b90612e56565b60405180910390fd5b81600760003373ffffffffffffffffffffffffffffffffffffffff1673ffffffffffffffffffffffffffffffffffffffff1681526020019081526020016000206000015410156109b9576040517f08c379a00000000000000000000000000000000000000000000000000000000081526004016109b090612ec2565b60405180910390fd5b6000600760003373ffffffffffffffffffffffffffffffffffffffff1673ffffffffffffffffffffffffffffffffffffffff1681526020019081526020016000206000015411610a3e576040517f08c379a0000000000000000000000000000000000000000000000000000000008152600401610a3590612f2e565b60405180910390fd5b6000610a498261100a565b9050828173ffffffffffffffffffffffffffffffffffffffff166370a08231306040518263ffffffff1660e01b8152600401610a8591906127c0565b60206040518083038186803b158015610a9d57600080fd5b505afa158015610ab1573d6000803e3d6000fd5b505050506040513d601f19601f82011682018060405250810190610ad59190612f63565b1015610b16576040517f08c379a0000000000000000000000000000000000000000000000000000000008152600401610b0d90612fdc565b60405180910390fd5b610b6b83600760003373ffffffffffffffffffffffffffffffffffffffff1673ffffffffffffffffffffffffffffffffffffffff16815260200190815260200160002060000154611e4f90919063ffffffff16565b600760003373ffffffffffffffffffffffffffffffffffffffff1673ffffffffffffffffffffffffffffffffffffffff168152602001908152602001600020600001819055508073ffffffffffffffffffffffffffffffffffffffff1663095ea7b330856040518363ffffffff1660e01b8152600401610bec929190612ffc565b602060405180830381600087803b158015610c0657600080fd5b505af1158015610c1a573d6000803e3d6000fd5b505050506040513d601f19601f82011682018060405250810190610c3e9190612cd9565b508073ffffffffffffffffffffffffffffffffffffffff166323b872dd3033866040518463ffffffff1660e01b8152600401610c7c93929190612c76565b602060405180830381600087803b158015610c9657600080fd5b505af1158015610caa573d6000803e3d6000fd5b505050506040513d601f19601f82011682018060405250810190610cce9190612cd9565b507f373d92bf7d9cdd58a8c86db5461f3cdcd325b803fdbac8d1b224a0f5fce847b83384604051610d00929190612ffc565b60405180910390a1505050565b6000600760008373ffffffffffffffffffffffffffffffffffffffff1673ffffffffffffffffffffffffffffffffffffffff168152602001908152602001600020600001549050919050565b610d61611e65565b610d6a83611d4e565b15610daa576040517f08c379a0000000000000000000000000000000000000000000000000000000008152600401610da190613071565b60405180910390fd5b600060066000858152602001908152602001600020805480602002602001604051908101604052809291908181526020018280548015610e0957602002820191906000526020600020905b815481526020019060010190808311610df5575b505050505090506000815190506000610e2c835185611ee390919063ffffffff16565b90506000821115611002578473ffffffffffffffffffffffffffffffffffffffff1663095ea7b330866040518363ffffffff1660e01b8152600401610e72929190612ffc565b602060405180830381600087803b158015610e8c57600080fd5b505af1158015610ea0573d6000803e3d6000fd5b505050506040513d601f19601f82011682018060405250810190610ec49190612cd9565b506000600190505b8281116110005760006004600083815260200190815260200160002060020160009054906101000a900473ffffffffffffffffffffffffffffffffffffffff1690506000831115610fec5760008773ffffffffffffffffffffffffffffffffffffffff166323b872dd3084876040518463ffffffff1660e01b8152600401610f5693929190612c76565b602060405180830381600087803b158015610f7057600080fd5b505af1158015610f84573d6000803e3d6000fd5b505050506040513d601f19601f82011682018060405250810190610fa89190612cd9565b905080610fea576040517f08c379a0000000000000000000000000000000000000000000000000000000008152600401610fe190613103565b60405180910390fd5b505b508080610ff890613152565b915050610ecc565b505b505050505050565b600061101582610618565b602001519050919050565b611028611e65565b6110326000611ef9565b565b61103c611e65565b61104582611d4e565b15611085576040517f08c379a000000000000000000000000000000000000000000000000000000000815260040161107c90613071565b60405180910390fd5b806006600084815260200190815260200160002090805190602001906110ac92919061202e565b505050565b6110b9611e65565b600073ffffffffffffffffffffffffffffffffffffffff168273ffffffffffffffffffffffffffffffffffffffff161415611129576040517f08c379a0000000000000000000000000000000000000000000000000000000008152600401611120906131e7565b60405180910390fd5b6000811161116c576040517f08c379a000000000000000000000000000000000000000000000000000000000815260040161116390612c56565b60405180910390fd5b600160009054906101000a900473ffffffffffffffffffffffffffffffffffffffff1673ffffffffffffffffffffffffffffffffffffffff166369328dec8383306040518463ffffffff1660e01b81526004016111cb93929190613207565b600060405180830381600087803b1580156111e557600080fd5b505af11580156111f9573d6000803e3d6000fd5b505050505050565b60008060009054906101000a900473ffffffffffffffffffffffffffffffffffffffff16905090565b611232611e65565b600073ffffffffffffffffffffffffffffffffffffffff168373ffffffffffffffffffffffffffffffffffffffff1614156112a2576040517f08c379a0000000000000000000000000000000000000000000000000000000008152600401611299906131e7565b60405180910390fd5b600082116112e5576040517f08c379a00000000000000000000000000000000000000000000000000000000081526004016112dc90612c56565b60405180910390fd5b818373ffffffffffffffffffffffffffffffffffffffff166370a08231306040518263ffffffff1660e01b815260040161131f91906127c0565b60206040518083038186803b15801561133757600080fd5b505afa15801561134b573d6000803e3d6000fd5b505050506040513d601f19601f8201168201806040525081019061136f9190612f63565b10156113b0576040517f08c379a00000000000000000000000000000000000000000000000000000000081526004016113a790612fdc565b60405180910390fd5b8273ffffffffffffffffffffffffffffffffffffffff1663095ea7b3600160009054906101000a900473ffffffffffffffffffffffffffffffffffffffff16846040518363ffffffff1660e01b815260040161140d929190612ffc565b602060405180830381600087803b15801561142757600080fd5b505af115801561143b573d6000803e3d6000fd5b505050506040513d601f19601f8201168201806040525081019061145f9190612cd9565b50600160009054906101000a900473ffffffffffffffffffffffffffffffffffffffff1673ffffffffffffffffffffffffffffffffffffffff1663e8eda9df848430856040518563ffffffff1660e01b81526004016114c1949392919061324d565b600060405180830381600087803b1580156114db57600080fd5b505af11580156114ef573d6000803e3d6000fd5b50505050505050565b61150061207b565b6000600460008481526020019081526020016000206040518060c00160405290816000820160009054906101000a900473ffffffffffffffffffffffffffffffffffffffff1673ffffffffffffffffffffffffffffffffffffffff1673ffffffffffffffffffffffffffffffffffffffff168152602001600182015481526020016002820160009054906101000a900473ffffffffffffffffffffffffffffffffffffffff1673ffffffffffffffffffffffffffffffffffffffff1673ffffffffffffffffffffffffffffffffffffffff168152602001600382015481526020016004820180546115f090612d6c565b80601f016020809104026020016040519081016040528092919081815260200182805461161c90612d6c565b80156116695780601f1061163e57610100808354040283529160200191611669565b820191906000526020600020905b81548152906001019060200180831161164c57829003601f168201915b5050505050815260200160058201805461168290612d6c565b80601f01602080910402602001604051908101604052809291908181526020018280546116ae90612d6c565b80156116fb5780601f106116d0576101008083540402835291602001916116fb565b820191906000526020600020905b8154815290600101906020018083116116de57829003601f168201915b505050505081525050905080915050919050565b611717611e65565b600073ffffffffffffffffffffffffffffffffffffffff168473ffffffffffffffffffffffffffffffffffffffff161415611787576040517f08c379a000000000000000000000000000000000000000000000000000000000815260040161177e906132de565b60405180910390fd5b61179083611d4e565b6117cf576040517f08c379a00000000000000000000000000000000000000000000000000000000081526004016117c690612b7e565b60405180910390fd5b6000825111611813576040517f08c379a000000000000000000000000000000000000000000000000000000000815260040161180a9061334a565b60405180910390fd5b6000815111611857576040517f08c379a000000000000000000000000000000000000000000000000000000000815260040161184e906133b6565b60405180910390fd5b600061186f6001600554611e3990919063ffffffff16565b9050806005819055506040518060c001604052803373ffffffffffffffffffffffffffffffffffffffff1681526020014281526020018673ffffffffffffffffffffffffffffffffffffffff168152602001858152602001848152602001838152506004600083815260200190815260200160002060008201518160000160006101000a81548173ffffffffffffffffffffffffffffffffffffffff021916908373ffffffffffffffffffffffffffffffffffffffff1602179055506020820151816001015560408201518160020160006101000a81548173ffffffffffffffffffffffffffffffffffffffff021916908373ffffffffffffffffffffffffffffffffffffffff1602179055506060820151816003015560808201518160040190805190602001906119a29291906120dd565b5060a08201518160050190805190602001906119bf9291906120dd565b509050507fdd93a2eea999098baf58b1b625bafeb9de9b5992cddf33b0c48efbd09c2c25c86005546040516119f4919061228a565b60405180910390a15050505050565b611a0b611e65565b600073ffffffffffffffffffffffffffffffffffffffff168573ffffffffffffffffffffffffffffffffffffffff161415611a7b576040517f08c379a0000000000000000000000000000000000000000000000000000000008152600401611a72906132de565b60405180910390fd5b60008411611abe576040517f08c379a0000000000000000000000000000000000000000000000000000000008152600401611ab590613422565b60405180910390fd5b60008311611b01576040517f08c379a0000000000000000000000000000000000000000000000000000000008152600401611af89061348e565b60405180910390fd5b6000825111611b45576040517f08c379a0000000000000000000000000000000000000000000000000000000008152600401611b3c9061334a565b60405180910390fd5b6000815111611b89576040517f08c379a0000000000000000000000000000000000000000000000000000000008152600401611b80906133b6565b60405180910390fd5b6000611ba16001600354611e3990919063ffffffff16565b9050806003819055506040518060e001604052803373ffffffffffffffffffffffffffffffffffffffff1681526020018773ffffffffffffffffffffffffffffffffffffffff168152602001428152602001868152602001858152602001848152602001838152506002600083815260200190815260200160002060008201518160000160006101000a81548173ffffffffffffffffffffffffffffffffffffffff021916908373ffffffffffffffffffffffffffffffffffffffff16021790555060208201518160010160006101000a81548173ffffffffffffffffffffffffffffffffffffffff021916908373ffffffffffffffffffffffffffffffffffffffff16021790555060408201518160020155606082015181600301556080820151816004015560a0820151816005019080519060200190611ce49291906120dd565b5060c0820151816006019080519060200190611d019291906120dd565b509050507f646d794096491b3ee2fa1364d71e46229a60d31484c47665f7957c0b165d64c281604051611d34919061228a565b60405180910390a1505050505050565b6000600554905090565b600080611d9060026000858152602001908152602001600020600401546002600086815260200190815260200160002060030154611e3990919063ffffffff16565b9050428111915050919050565b611da5611e65565b600073ffffffffffffffffffffffffffffffffffffffff168173ffffffffffffffffffffffffffffffffffffffff161415611e15576040517f08c379a0000000000000000000000000000000000000000000000000000000008152600401611e0c90613520565b60405180910390fd5b611e1e81611ef9565b50565b611e2961207b565b611e346003546114f8565b905090565b60008183611e479190613540565b905092915050565b60008183611e5d9190613596565b905092915050565b611e6d611fbd565b73ffffffffffffffffffffffffffffffffffffffff16611e8b611201565b73ffffffffffffffffffffffffffffffffffffffff1614611ee1576040517f08c379a0000000000000000000000000000000000000000000000000000000008152600401611ed890613616565b60405180910390fd5b565b60008183611ef19190613665565b905092915050565b60008060009054906101000a900473ffffffffffffffffffffffffffffffffffffffff169050816000806101000a81548173ffffffffffffffffffffffffffffffffffffffff021916908373ffffffffffffffffffffffffffffffffffffffff1602179055508173ffffffffffffffffffffffffffffffffffffffff168173ffffffffffffffffffffffffffffffffffffffff167f8be0079c531659141344cd1fd0a4f28419497f9722a3daafe3b4186f6b6457e060405160405180910390a35050565b600033905090565b6040518060e00160405280600073ffffffffffffffffffffffffffffffffffffffff168152602001600073ffffffffffffffffffffffffffffffffffffffff16815260200160008152602001600081526020016000815260200160608152602001606081525090565b82805482825590600052602060002090810192821561206a579160200282015b8281111561206957825182559160200191906001019061204e565b5b5090506120779190612163565b5090565b6040518060c00160405280600073ffffffffffffffffffffffffffffffffffffffff16815260200160008152602001600073ffffffffffffffffffffffffffffffffffffffff1681526020016000815260200160608152602001606081525090565b8280546120e990612d6c565b90600052602060002090601f01602090048101928261210b5760008555612152565b82601f1061212457805160ff1916838001178555612152565b82800160010185558215612152579182015b82811115612151578251825591602001919060010190612136565b5b50905061215f9190612163565b5090565b5b8082111561217c576000816000905550600101612164565b5090565b6000604051905090565b600080fd5b600080fd5b600073ffffffffffffffffffffffffffffffffffffffff82169050919050565b60006121bf82612194565b9050919050565b6121cf816121b4565b81146121da57600080fd5b50565b6000813590506121ec816121c6565b92915050565b6000819050919050565b612205816121f2565b811461221057600080fd5b50565b600081359050612222816121fc565b92915050565b6000806000606084860312156122415761224061218a565b5b600061224f868287016121dd565b935050602061226086828701612213565b925050604061227186828701612213565b9150509250925092565b612284816121f2565b82525050565b600060208201905061229f600083018461227b565b92915050565b6000602082840312156122bb576122ba61218a565b5b60006122c984828501612213565b91505092915050565b6122db816121b4565b82525050565b6000819050919050565b60006123066123016122fc84612194565b6122e1565b612194565b9050919050565b6000612318826122eb565b9050919050565b600061232a8261230d565b9050919050565b61233a8161231f565b82525050565b612349816121f2565b82525050565b600081519050919050565b600082825260208201905092915050565b60005b8381101561238957808201518184015260208101905061236e565b83811115612398576000848401525b50505050565b6000601f19601f8301169050919050565b60006123ba8261234f565b6123c4818561235a565b93506123d481856020860161236b565b6123dd8161239e565b840191505092915050565b600060e08301600083015161240060008601826122d2565b5060208301516124136020860182612331565b5060408301516124266040860182612340565b5060608301516124396060860182612340565b50608083015161244c6080860182612340565b5060a083015184820360a086015261246482826123af565b91505060c083015184820360c086015261247e82826123af565b9150508091505092915050565b600060208201905081810360008301526124a581846123e8565b905092915050565b600080604083850312156124c4576124c361218a565b5b60006124d2858286016121dd565b92505060206124e385828601612213565b9150509250929050565b60008115159050919050565b612502816124ed565b82525050565b600060208201905061251d60008301846124f9565b92915050565b6000806040838503121561253a5761253961218a565b5b600061254885828601612213565b925050602061255985828601612213565b9150509250929050565b6000602082840312156125795761257861218a565b5b6000612587848285016121dd565b91505092915050565b6000806000606084860312156125a9576125a861218a565b5b60006125b786828701612213565b93505060206125c8868287016121dd565b92505060406125d986828701612213565b9150509250925092565b6125ec8161231f565b82525050565b600060208201905061260760008301846125e3565b92915050565b600080fd5b7f4e487b7100000000000000000000000000000000000000000000000000000000600052604160045260246000fd5b61264a8261239e565b810181811067ffffffffffffffff8211171561266957612668612612565b5b80604052505050565b600061267c612180565b90506126888282612641565b919050565b600067ffffffffffffffff8211156126a8576126a7612612565b5b602082029050602081019050919050565b600080fd5b60006126d16126cc8461268d565b612672565b905080838252602082019050602084028301858111156126f4576126f36126b9565b5b835b8181101561271d57806127098882612213565b8452602084019350506020810190506126f6565b5050509392505050565b600082601f83011261273c5761273b61260d565b5b813561274c8482602086016126be565b91505092915050565b6000806040838503121561276c5761276b61218a565b5b600061277a85828601612213565b925050602083013567ffffffffffffffff81111561279b5761279a61218f565b5b6127a785828601612727565b9150509250929050565b6127ba816121b4565b82525050565b60006020820190506127d560008301846127b1565b92915050565b600061ffff82169050919050565b6127f2816127db565b81146127fd57600080fd5b50565b60008135905061280f816127e9565b92915050565b60008060006060848603121561282e5761282d61218a565b5b600061283c868287016121dd565b935050602061284d86828701612213565b925050604061285e86828701612800565b9150509250925092565b600060c08301600083015161288060008601826122d2565b5060208301516128936020860182612340565b5060408301516128a660408601826122d2565b5060608301516128b96060860182612340565b50608083015184820360808601526128d182826123af565b91505060a083015184820360a08601526128eb82826123af565b9150508091505092915050565b600060208201905081810360008301526129128184612868565b905092915050565b600080fd5b600067ffffffffffffffff82111561293a57612939612612565b5b6129438261239e565b9050602081019050919050565b82818337600083830152505050565b600061297261296d8461291f565b612672565b90508281526020810184848401111561298e5761298d61291a565b5b612999848285612950565b509392505050565b600082601f8301126129b6576129b561260d565b5b81356129c684826020860161295f565b91505092915050565b600080600080608085870312156129e9576129e861218a565b5b60006129f7878288016121dd565b9450506020612a0887828801612213565b935050604085013567ffffffffffffffff811115612a2957612a2861218f565b5b612a35878288016129a1565b925050606085013567ffffffffffffffff811115612a5657612a5561218f565b5b612a62878288016129a1565b91505092959194509250565b600080600080600060a08688031215612a8a57612a8961218a565b5b6000612a98888289016121dd565b9550506020612aa988828901612213565b9450506040612aba88828901612213565b935050606086013567ffffffffffffffff811115612adb57612ada61218f565b5b612ae7888289016129a1565b925050608086013567ffffffffffffffff811115612b0857612b0761218f565b5b612b14888289016129a1565b9150509295509295909350565b600082825260208201905092915050565b7f50726f6d6f74696f6e2065787069726564210000000000000000000000000000600082015250565b6000612b68601283612b21565b9150612b7382612b32565b602082019050919050565b60006020820190508181036000830152612b9781612b5b565b9050919050565b7f4e6f742070726f6d6f74696f6e20746f6b656e00000000000000000000000000600082015250565b6000612bd4601383612b21565b9150612bdf82612b9e565b602082019050919050565b60006020820190508181036000830152612c0381612bc7565b9050919050565b7f496e76616c696420616d6f756e74000000000000000000000000000000000000600082015250565b6000612c40600e83612b21565b9150612c4b82612c0a565b602082019050919050565b60006020820190508181036000830152612c6f81612c33565b9050919050565b6000606082019050612c8b60008301866127b1565b612c9860208301856127b1565b612ca5604083018461227b565b949350505050565b612cb6816124ed565b8114612cc157600080fd5b50565b600081519050612cd381612cad565b92915050565b600060208284031215612cef57612cee61218a565b5b6000612cfd84828501612cc4565b91505092915050565b6000606082019050612d1b60008301866127b1565b612d28602083018561227b565b612d35604083018461227b565b949350505050565b7f4e487b7100000000000000000000000000000000000000000000000000000000600052602260045260246000fd5b60006002820490506001821680612d8457607f821691505b60208210811415612d9857612d97612d3d565b5b50919050565b7f50726f6d6f74696f6e207374696c6c2072756e6e696e67210000000000000000600082015250565b6000612dd4601883612b21565b9150612ddf82612d9e565b602082019050919050565b60006020820190508181036000830152612e0381612dc7565b9050919050565b7f496e76616c696420616d6f756e74210000000000000000000000000000000000600082015250565b6000612e40600f83612b21565b9150612e4b82612e0a565b602082019050919050565b60006020820190508181036000830152612e6f81612e33565b9050919050565b7f4e6f7420656e6f756768207374616b6564210000000000000000000000000000600082015250565b6000612eac601283612b21565b9150612eb782612e76565b602082019050919050565b60006020820190508181036000830152612edb81612e9f565b9050919050565b7f4e6f7468696e67207374616b6564210000000000000000000000000000000000600082015250565b6000612f18600f83612b21565b9150612f2382612ee2565b602082019050919050565b60006020820190508181036000830152612f4781612f0b565b9050919050565b600081519050612f5d816121fc565b92915050565b600060208284031215612f7957612f7861218a565b5b6000612f8784828501612f4e565b91505092915050565b7f4e6f7420656e6f7567682062616c616e63652100000000000000000000000000600082015250565b6000612fc6601383612b21565b9150612fd182612f90565b602082019050919050565b60006020820190508181036000830152612ff581612fb9565b9050919050565b600060408201905061301160008301856127b1565b61301e602083018461227b565b9392505050565b7f50726f6d6f74696f6e206973207374696c6c2072756e6e696e67210000000000600082015250565b600061305b601b83612b21565b915061306682613025565b602082019050919050565b6000602082019050818103600083015261308a8161304e565b9050919050565b7f4661696c656420746f2073656e6420616d6f756e7420666f72207472616e736660008201527f65722e0000000000000000000000000000000000000000000000000000000000602082015250565b60006130ed602383612b21565b91506130f882613091565b604082019050919050565b6000602082019050818103600083015261311c816130e0565b9050919050565b7f4e487b7100000000000000000000000000000000000000000000000000000000600052601160045260246000fd5b600061315d826121f2565b91507fffffffffffffffffffffffffffffffffffffffffffffffffffffffffffffffff8214156131905761318f613123565b5b600182019050919050565b7f41737365742068617320746f206265206e6f6e207a65726f2061646472657373600082015250565b60006131d1602083612b21565b91506131dc8261319b565b602082019050919050565b60006020820190508181036000830152613200816131c4565b9050919050565b600060608201905061321c60008301866127b1565b613229602083018561227b565b61323660408301846127b1565b949350505050565b613247816127db565b82525050565b600060808201905061326260008301876127b1565b61326f602083018661227b565b61327c60408301856127b1565b613289606083018461323e565b95945050505050565b7f43616e2774206265207a65726f20616464726573730000000000000000000000600082015250565b60006132c8601583612b21565b91506132d382613292565b602082019050919050565b600060208201905081810360008301526132f7816132bb565b9050919050565b7f5469746c652063616e277420626520656d707479000000000000000000000000600082015250565b6000613334601483612b21565b915061333f826132fe565b602082019050919050565b6000602082019050818103600083015261336381613327565b9050919050565b7f4465736372697074696f6e2063616e277420626520656d707479000000000000600082015250565b60006133a0601a83612b21565b91506133ab8261336a565b602082019050919050565b600060208201905081810360008301526133cf81613393565b9050919050565b7f53746172742074696d65206d75737420626520706f7369746976650000000000600082015250565b600061340c601b83612b21565b9150613417826133d6565b602082019050919050565b6000602082019050818103600083015261343b816133ff565b9050919050565b7f4c656e676874206d75737420626520706f736974697665000000000000000000600082015250565b6000613478601783612b21565b915061348382613442565b602082019050919050565b600060208201905081810360008301526134a78161346b565b9050919050565b7f4f776e61626c653a206e6577206f776e657220697320746865207a65726f206160008201527f6464726573730000000000000000000000000000000000000000000000000000602082015250565b600061350a602683612b21565b9150613515826134ae565b604082019050919050565b60006020820190508181036000830152613539816134fd565b9050919050565b600061354b826121f2565b9150613556836121f2565b9250827fffffffffffffffffffffffffffffffffffffffffffffffffffffffffffffffff0382111561358b5761358a613123565b5b828201905092915050565b60006135a1826121f2565b91506135ac836121f2565b9250828210156135bf576135be613123565b5b828203905092915050565b7f4f776e61626c653a2063616c6c6572206973206e6f7420746865206f776e6572600082015250565b6000613600602083612b21565b915061360b826135ca565b602082019050919050565b6000602082019050818103600083015261362f816135f3565b9050919050565b7f4e487b7100000000000000000000000000000000000000000000000000000000600052601260045260246000fd5b6000613670826121f2565b915061367b836121f2565b92508261368b5761368a613636565b5b82820490509291505056fea26469706673582212209d6efd4ec9af7a91810b1994c84437093025121dcb44ae8188e9d43cc7befd9b64736f6c63430008090033",
  "linkReferences": {},
  "deployedLinkReferences": {}
}