{
  "_format": "hh-sol-artifact-1",
  "contractName": "Park2Earn",
  "sourceName": "contracts/Park2Earn.sol",
  "abi": [
    {
      "inputs": [
        {
          "internalType": "uint64",
          "name": "subscriptionId",
          "type": "uint64"
        },
        {
          "internalType": "address",
          "name": "aaveLendingPool",
          "type": "address"
        }
      ],
      "stateMutability": "nonpayable",
      "type": "constructor"
    },
    {
      "inputs": [
        {
          "internalType": "address",
          "name": "have",
          "type": "address"
        },
        {
          "internalType": "address",
          "name": "want",
          "type": "address"
        }
      ],
      "name": "OnlyCoordinatorCanFulfill",
      "type": "error"
    },
    {
      "anonymous": false,
      "inputs": [
        {
          "indexed": false,
          "internalType": "uint256",
          "name": "promotionId",
          "type": "uint256"
        }
      ],
      "name": "CreatePromotion",
      "type": "event"
    },
    {
      "anonymous": false,
      "inputs": [
        {
          "indexed": false,
          "internalType": "uint256",
          "name": "privateGoodId",
          "type": "uint256"
        }
      ],
      "name": "CreatePublicGood",
      "type": "event"
    },
    {
      "anonymous": false,
      "inputs": [
        {
          "indexed": true,
          "internalType": "address",
          "name": "previousOwner",
          "type": "address"
        },
        {
          "indexed": true,
          "internalType": "address",
          "name": "newOwner",
          "type": "address"
        }
      ],
      "name": "OwnershipTransferred",
      "type": "event"
    },
    {
      "anonymous": false,
      "inputs": [
        {
          "indexed": false,
          "internalType": "address",
          "name": "staker",
          "type": "address"
        },
        {
          "indexed": false,
          "internalType": "uint256",
          "name": "amount",
          "type": "uint256"
        },
        {
          "indexed": false,
          "internalType": "uint256",
          "name": "promotionId",
          "type": "uint256"
        }
      ],
      "name": "StakedTokens",
      "type": "event"
    },
    {
      "anonymous": false,
      "inputs": [
        {
          "indexed": false,
          "internalType": "address",
          "name": "staker",
          "type": "address"
        },
        {
          "indexed": false,
          "internalType": "uint256",
          "name": "amount",
          "type": "uint256"
        }
      ],
      "name": "WithdrawnTokens",
      "type": "event"
    },
    {
      "inputs": [
        {
          "internalType": "address",
          "name": "token",
          "type": "address"
        },
        {
          "internalType": "uint256",
          "name": "startTime",
          "type": "uint256"
        },
        {
          "internalType": "uint256",
          "name": "length",
          "type": "uint256"
        },
        {
          "internalType": "string",
          "name": "title",
          "type": "string"
        },
        {
          "internalType": "string",
          "name": "description",
          "type": "string"
        }
      ],
      "name": "createPromotion",
      "outputs": [],
      "stateMutability": "nonpayable",
      "type": "function"
    },
    {
      "inputs": [
        {
          "internalType": "address",
          "name": "recipient",
          "type": "address"
        },
        {
          "internalType": "uint256",
          "name": "promotionId",
          "type": "uint256"
        },
        {
          "internalType": "string",
          "name": "title",
          "type": "string"
        },
        {
          "internalType": "string",
          "name": "description",
          "type": "string"
        }
      ],
      "name": "createPublicGood",
      "outputs": [],
      "stateMutability": "nonpayable",
      "type": "function"
    },
    {
      "inputs": [
        {
          "internalType": "address",
          "name": "asset",
          "type": "address"
        },
        {
          "internalType": "uint256",
          "name": "amount",
          "type": "uint256"
        },
        {
          "internalType": "uint16",
          "name": "referralCode",
          "type": "uint16"
        }
      ],
      "name": "depositAave",
      "outputs": [],
      "stateMutability": "nonpayable",
      "type": "function"
    },
    {
      "inputs": [
        {
          "internalType": "uint256",
          "name": "promotionId",
          "type": "uint256"
        },
        {
          "internalType": "address",
          "name": "token",
          "type": "address"
        },
        {
          "internalType": "uint256",
          "name": "amount",
          "type": "uint256"
        }
      ],
      "name": "distributeWinners",
      "outputs": [],
      "stateMutability": "nonpayable",
      "type": "function"
    },
    {
      "inputs": [
        {
          "internalType": "uint256",
          "name": "promotionId",
          "type": "uint256"
        },
        {
          "internalType": "uint256",
          "name": "moduloRange",
          "type": "uint256"
        }
      ],
      "name": "drawWinners",
      "outputs": [],
      "stateMutability": "nonpayable",
      "type": "function"
    },
    {
      "inputs": [
        {
          "internalType": "address",
          "name": "staker",
          "type": "address"
        }
      ],
      "name": "getAmountStaked",
      "outputs": [
        {
          "internalType": "uint256",
          "name": "amount",
          "type": "uint256"
        }
      ],
      "stateMutability": "view",
      "type": "function"
    },
    {
      "inputs": [],
      "name": "getLatestPromotion",
      "outputs": [
        {
          "components": [
            {
              "internalType": "address",
              "name": "creator",
              "type": "address"
            },
            {
              "internalType": "contract IERC20",
              "name": "token",
              "type": "address"
            },
            {
              "internalType": "uint256",
              "name": "createdAt",
              "type": "uint256"
            },
            {
              "internalType": "uint256",
              "name": "startTime",
              "type": "uint256"
            },
            {
              "internalType": "uint256",
              "name": "promoLength",
              "type": "uint256"
            },
            {
              "internalType": "string",
              "name": "title",
              "type": "string"
            },
            {
              "internalType": "string",
              "name": "description",
              "type": "string"
            }
          ],
          "internalType": "struct Park2Earn.Promotion",
          "name": "",
          "type": "tuple"
        }
      ],
      "stateMutability": "view",
      "type": "function"
    },
    {
      "inputs": [
        {
          "internalType": "uint256",
          "name": "id",
          "type": "uint256"
        }
      ],
      "name": "getPromotion",
      "outputs": [
        {
          "components": [
            {
              "internalType": "address",
              "name": "creator",
              "type": "address"
            },
            {
              "internalType": "contract IERC20",
              "name": "token",
              "type": "address"
            },
            {
              "internalType": "uint256",
              "name": "createdAt",
              "type": "uint256"
            },
            {
              "internalType": "uint256",
              "name": "startTime",
              "type": "uint256"
            },
            {
              "internalType": "uint256",
              "name": "promoLength",
              "type": "uint256"
            },
            {
              "internalType": "string",
              "name": "title",
              "type": "string"
            },
            {
              "internalType": "string",
              "name": "description",
              "type": "string"
            }
          ],
          "internalType": "struct Park2Earn.Promotion",
          "name": "",
          "type": "tuple"
        }
      ],
      "stateMutability": "view",
      "type": "function"
    },
    {
      "inputs": [
        {
          "internalType": "uint256",
          "name": "id",
          "type": "uint256"
        }
      ],
      "name": "getPromotionToken",
      "outputs": [
        {
          "internalType": "contract IERC20",
          "name": "token",
          "type": "address"
        }
      ],
      "stateMutability": "view",
      "type": "function"
    },
    {
      "inputs": [
        {
          "internalType": "uint256",
          "name": "promotionId",
          "type": "uint256"
        }
      ],
      "name": "getPromotionWinners",
      "outputs": [
        {
          "internalType": "uint256[]",
          "name": "winners",
          "type": "uint256[]"
        }
      ],
      "stateMutability": "view",
      "type": "function"
    },
    {
      "inputs": [],
      "name": "getPromotionsCount",
      "outputs": [
        {
          "internalType": "uint256",
          "name": "count",
          "type": "uint256"
        }
      ],
      "stateMutability": "view",
      "type": "function"
    },
    {
      "inputs": [
        {
          "internalType": "uint256",
          "name": "id",
          "type": "uint256"
        }
      ],
      "name": "getPublicGood",
      "outputs": [
        {
          "components": [
            {
              "internalType": "address",
              "name": "creator",
              "type": "address"
            },
            {
              "internalType": "uint256",
              "name": "createdAt",
              "type": "uint256"
            },
            {
              "internalType": "address",
              "name": "recipient",
              "type": "address"
            },
            {
              "internalType": "uint256",
              "name": "promotionId",
              "type": "uint256"
            },
            {
              "internalType": "string",
              "name": "title",
              "type": "string"
            },
            {
              "internalType": "string",
              "name": "description",
              "type": "string"
            }
          ],
          "internalType": "struct Park2Earn.PublicGood",
          "name": "",
          "type": "tuple"
        }
      ],
      "stateMutability": "view",
      "type": "function"
    },
    {
      "inputs": [],
      "name": "getPublicGoodsCount",
      "outputs": [
        {
          "internalType": "uint256",
          "name": "count",
          "type": "uint256"
        }
      ],
      "stateMutability": "view",
      "type": "function"
    },
    {
      "inputs": [
        {
          "internalType": "uint256",
          "name": "id",
          "type": "uint256"
        }
      ],
      "name": "isPromotionExpired",
      "outputs": [
        {
          "internalType": "bool",
          "name": "isExpired",
          "type": "bool"
        }
      ],
      "stateMutability": "view",
      "type": "function"
    },
    {
      "inputs": [
        {
          "internalType": "address",
          "name": "token",
          "type": "address"
        },
        {
          "internalType": "uint256",
          "name": "promotionId",
          "type": "uint256"
        }
      ],
      "name": "isPromotionToken",
      "outputs": [
        {
          "internalType": "bool",
          "name": "",
          "type": "bool"
        }
      ],
      "stateMutability": "view",
      "type": "function"
    },
    {
      "inputs": [],
      "name": "owner",
      "outputs": [
        {
          "internalType": "address",
          "name": "",
          "type": "address"
        }
      ],
      "stateMutability": "view",
      "type": "function"
    },
    {
      "inputs": [
        {
          "internalType": "uint256",
          "name": "requestId",
          "type": "uint256"
        },
        {
          "internalType": "uint256[]",
          "name": "randomWords",
          "type": "uint256[]"
        }
      ],
      "name": "rawFulfillRandomWords",
      "outputs": [],
      "stateMutability": "nonpayable",
      "type": "function"
    },
    {
      "inputs": [],
      "name": "renounceOwnership",
      "outputs": [],
      "stateMutability": "nonpayable",
      "type": "function"
    },
    {
      "inputs": [],
      "name": "requestRandomWords",
      "outputs": [],
      "stateMutability": "nonpayable",
      "type": "function"
    },
    {
      "inputs": [
        {
          "internalType": "uint256",
          "name": "",
          "type": "uint256"
        }
      ],
      "name": "s_randomWords",
      "outputs": [
        {
          "internalType": "uint256",
          "name": "",
          "type": "uint256"
        }
      ],
      "stateMutability": "view",
      "type": "function"
    },
    {
      "inputs": [],
      "name": "s_requestId",
      "outputs": [
        {
          "internalType": "uint256",
          "name": "",
          "type": "uint256"
        }
      ],
      "stateMutability": "view",
      "type": "function"
    },
    {
      "inputs": [
        {
          "internalType": "address",
          "name": "token",
          "type": "address"
        },
        {
          "internalType": "uint256",
          "name": "amount",
          "type": "uint256"
        },
        {
          "internalType": "uint256",
          "name": "promotionId",
          "type": "uint256"
        }
      ],
      "name": "stake",
      "outputs": [],
      "stateMutability": "nonpayable",
      "type": "function"
    },
    {
      "inputs": [
        {
          "internalType": "address",
          "name": "newOwner",
          "type": "address"
        }
      ],
      "name": "transferOwnership",
      "outputs": [],
      "stateMutability": "nonpayable",
      "type": "function"
    },
    {
      "inputs": [
        {
          "internalType": "address",
          "name": "asset",
          "type": "address"
        },
        {
          "internalType": "uint256",
          "name": "amount",
          "type": "uint256"
        }
      ],
      "name": "withdrawAave",
      "outputs": [],
      "stateMutability": "nonpayable",
      "type": "function"
    },
    {
      "inputs": [
        {
          "internalType": "uint256",
          "name": "amount",
          "type": "uint256"
        },
        {
          "internalType": "uint256",
          "name": "promotionId",
          "type": "uint256"
        }
      ],
      "name": "withdrawStaked",
      "outputs": [],
      "stateMutability": "nonpayable",
      "type": "function"
    }
  ],
  "bytecode": "0x60a0604052737a1bac17ccc5b313516c5e16fb24f7659aa5ebed600260006101000a81548173ffffffffffffffffffffffffffffffffffffffff021916908373ffffffffffffffffffffffffffffffffffffffff1602179055507f4b09e658ed251bcafeebbc69400383d49f344ace09b9576fe248bb02c003fe9f60001b600355620186a0600460006101000a81548163ffffffff021916908363ffffffff16021790555060036004806101000a81548161ffff021916908361ffff1602179055506002600460066101000a81548163ffffffff021916908363ffffffff16021790555060026004600a6101000a81548160ff021916908360ff1602179055503480156200010c57600080fd5b506040516200426b3803806200426b8339818101604052810190620001329190620003fa565b600260009054906101000a900473ffffffffffffffffffffffffffffffffffffffff1662000175620001696200027f60201b60201c565b6200028760201b60201c565b8073ffffffffffffffffffffffffffffffffffffffff1660808173ffffffffffffffffffffffffffffffffffffffff168152505050600260009054906101000a900473ffffffffffffffffffffffffffffffffffffffff16600160006101000a81548173ffffffffffffffffffffffffffffffffffffffff021916908373ffffffffffffffffffffffffffffffffffffffff16021790555081600160146101000a81548167ffffffffffffffff021916908367ffffffffffffffff16021790555080600760006101000a81548173ffffffffffffffffffffffffffffffffffffffff021916908373ffffffffffffffffffffffffffffffffffffffff160217905550505062000441565b600033905090565b60008060009054906101000a900473ffffffffffffffffffffffffffffffffffffffff169050816000806101000a81548173ffffffffffffffffffffffffffffffffffffffff021916908373ffffffffffffffffffffffffffffffffffffffff1602179055508173ffffffffffffffffffffffffffffffffffffffff168173ffffffffffffffffffffffffffffffffffffffff167f8be0079c531659141344cd1fd0a4f28419497f9722a3daafe3b4186f6b6457e060405160405180910390a35050565b600080fd5b600067ffffffffffffffff82169050919050565b6200036f8162000350565b81146200037b57600080fd5b50565b6000815190506200038f8162000364565b92915050565b600073ffffffffffffffffffffffffffffffffffffffff82169050919050565b6000620003c28262000395565b9050919050565b620003d481620003b5565b8114620003e057600080fd5b50565b600081519050620003f481620003c9565b92915050565b600080604083850312156200041457620004136200034b565b5b600062000424858286016200037e565b92505060206200043785828601620003e3565b9150509250929050565b608051613e07620004646000396000818161099501526109e90152613e076000f3fe608060405234801561001057600080fd5b50600436106101735760003560e01c80637891c043116100de578063dcc09bb711610097578063e89e106a11610071578063e89e106a14610432578063f2fde38b14610450578063f6eaffc81461046c578063ff4517d91461049c57610173565b8063dcc09bb7146103dc578063e0c86289146103f8578063e1ce329b1461040257610173565b80637891c0431461030a5780637a6b898814610326578063892f9e5c146103565780638da5cb5b146103865780638ef38a30146103a4578063a225c607146103c057610173565b80635104c819116101305780635104c8191461024a578063568c15f61461027a578063592e183a146102985780635f4b7129146102b457806362074fbf146102e4578063715018a61461030057610173565b80630c51b88f146101785780630d2709da1461019457806314fdecca146101b2578063168eafc1146101e25780631fe543e31461021257806335f96da81461022e575b600080fd5b610192600480360381019061018d9190612655565b6104ba565b005b61019c6106f9565b6040516101a991906126b7565b60405180910390f35b6101cc60048036038101906101c791906126d2565b610703565b6040516101d991906128b8565b60405180910390f35b6101fc60048036038101906101f791906128da565b610924565b6040516102099190612935565b60405180910390f35b61022c60048036038101906102279190612a98565b610993565b005b61024860048036038101906102439190612af4565b610a53565b005b610264600480360381019061025f9190612b34565b610eb8565b60405161027191906126b7565b60405180910390f35b610282610f04565b60405161028f91906126b7565b60405180910390f35b6102b260048036038101906102ad9190612b61565b610f0e565b005b6102ce60048036038101906102c991906126d2565b6111bf565b6040516102db9190612bc3565b60405180910390f35b6102fe60048036038101906102f99190612af4565b6111d5565b005b61030861131d565b005b610324600480360381019061031f91906128da565b611331565b005b610340600480360381019061033b91906126d2565b611481565b60405161034d9190612c6e565b60405180910390f35b610370600480360381019061036b91906126d2565b611698565b60405161037d9190612d3f565b60405180910390f35b61038e611703565b60405161039b9190612d70565b60405180910390f35b6103be60048036038101906103b99190612dc5565b61172c565b005b6103da60048036038101906103d59190612ecd565b6119fa565b005b6103f660048036038101906103f19190612f6c565b611ce6565b005b610400612027565b005b61041c600480360381019061041791906126d2565b612136565b6040516104299190612935565b60405180910390f35b61043a612185565b60405161044791906126b7565b60405180910390f35b61046a60048036038101906104659190612b34565b61218b565b005b610486600480360381019061048191906126d2565b61220f565b60405161049391906126b7565b60405180910390f35b6104a4612233565b6040516104b191906128b8565b60405180910390f35b6104c381612136565b610502576040517f08c379a00000000000000000000000000000000000000000000000000000000081526004016104f99061307c565b60405180910390fd5b61050c8382610924565b61054b576040517f08c379a0000000000000000000000000000000000000000000000000000000008152600401610542906130e8565b60405180910390fd5b6000821161058e576040517f08c379a000000000000000000000000000000000000000000000000000000000815260040161058590613154565b60405180910390fd5b6105e382600d60003373ffffffffffffffffffffffffffffffffffffffff1673ffffffffffffffffffffffffffffffffffffffff1681526020019081526020016000206000015461224b90919063ffffffff16565b600d60003373ffffffffffffffffffffffffffffffffffffffff1673ffffffffffffffffffffffffffffffffffffffff168152602001908152602001600020600001819055508273ffffffffffffffffffffffffffffffffffffffff166323b872dd3330856040518463ffffffff1660e01b815260040161066693929190613174565b602060405180830381600087803b15801561068057600080fd5b505af1158015610694573d6000803e3d6000fd5b505050506040513d601f19601f820116820180604052508101906106b891906131d7565b507fb7ae71bd615e1d1e5d496e36876dd8e9dd2842ba7f262d351041ceb43eae40cf3383836040516106ec93929190613204565b60405180910390a1505050565b6000600954905090565b61070b6123f2565b6000600860008481526020019081526020016000206040518060e00160405290816000820160009054906101000a900473ffffffffffffffffffffffffffffffffffffffff1673ffffffffffffffffffffffffffffffffffffffff1673ffffffffffffffffffffffffffffffffffffffff1681526020016001820160009054906101000a900473ffffffffffffffffffffffffffffffffffffffff1673ffffffffffffffffffffffffffffffffffffffff1673ffffffffffffffffffffffffffffffffffffffff1681526020016002820154815260200160038201548152602001600482015481526020016005820180546108059061326a565b80601f01602080910402602001604051908101604052809291908181526020018280546108319061326a565b801561087e5780601f106108535761010080835404028352916020019161087e565b820191906000526020600020905b81548152906001019060200180831161086157829003601f168201915b505050505081526020016006820180546108979061326a565b80601f01602080910402602001604051908101604052809291908181526020018280546108c39061326a565b80156109105780601f106108e557610100808354040283529160200191610910565b820191906000526020600020905b8154815290600101906020018083116108f357829003601f168201915b505050505081525050905080915050919050565b60008273ffffffffffffffffffffffffffffffffffffffff166008600084815260200190815260200160002060010160009054906101000a900473ffffffffffffffffffffffffffffffffffffffff1673ffffffffffffffffffffffffffffffffffffffff1614905092915050565b7f000000000000000000000000000000000000000000000000000000000000000073ffffffffffffffffffffffffffffffffffffffff163373ffffffffffffffffffffffffffffffffffffffff1614610a4557337f00000000000000000000000000000000000000000000000000000000000000006040517f1cf993f4000000000000000000000000000000000000000000000000000000008152600401610a3c92919061329c565b60405180910390fd5b610a4f8282612261565b5050565b610a5c81612136565b15610a9c576040517f08c379a0000000000000000000000000000000000000000000000000000000008152600401610a9390613311565b60405180910390fd5b60008211610adf576040517f08c379a0000000000000000000000000000000000000000000000000000000008152600401610ad69061337d565b60405180910390fd5b81600d60003373ffffffffffffffffffffffffffffffffffffffff1673ffffffffffffffffffffffffffffffffffffffff168152602001908152602001600020600001541015610b64576040517f08c379a0000000000000000000000000000000000000000000000000000000008152600401610b5b906133e9565b60405180910390fd5b6000600d60003373ffffffffffffffffffffffffffffffffffffffff1673ffffffffffffffffffffffffffffffffffffffff1681526020019081526020016000206000015411610be9576040517f08c379a0000000000000000000000000000000000000000000000000000000008152600401610be090613455565b60405180910390fd5b6000610bf4826111bf565b9050828173ffffffffffffffffffffffffffffffffffffffff166370a08231306040518263ffffffff1660e01b8152600401610c309190612d70565b60206040518083038186803b158015610c4857600080fd5b505afa158015610c5c573d6000803e3d6000fd5b505050506040513d601f19601f82011682018060405250810190610c80919061348a565b1015610cc1576040517f08c379a0000000000000000000000000000000000000000000000000000000008152600401610cb890613503565b60405180910390fd5b610d1683600d60003373ffffffffffffffffffffffffffffffffffffffff1673ffffffffffffffffffffffffffffffffffffffff1681526020019081526020016000206000015461227c90919063ffffffff16565b600d60003373ffffffffffffffffffffffffffffffffffffffff1673ffffffffffffffffffffffffffffffffffffffff168152602001908152602001600020600001819055508073ffffffffffffffffffffffffffffffffffffffff1663095ea7b330856040518363ffffffff1660e01b8152600401610d97929190613523565b602060405180830381600087803b158015610db157600080fd5b505af1158015610dc5573d6000803e3d6000fd5b505050506040513d601f19601f82011682018060405250810190610de991906131d7565b508073ffffffffffffffffffffffffffffffffffffffff166323b872dd3033866040518463ffffffff1660e01b8152600401610e2793929190613174565b602060405180830381600087803b158015610e4157600080fd5b505af1158015610e55573d6000803e3d6000fd5b505050506040513d601f19601f82011682018060405250810190610e7991906131d7565b507f373d92bf7d9cdd58a8c86db5461f3cdcd325b803fdbac8d1b224a0f5fce847b83384604051610eab929190613523565b60405180910390a1505050565b6000600d60008373ffffffffffffffffffffffffffffffffffffffff1673ffffffffffffffffffffffffffffffffffffffff168152602001908152602001600020600001549050919050565b6000600b54905090565b610f16612292565b610f1f83612136565b15610f5f576040517f08c379a0000000000000000000000000000000000000000000000000000000008152600401610f5690613598565b60405180910390fd5b6000600c6000858152602001908152602001600020805480602002602001604051908101604052809291908181526020018280548015610fbe57602002820191906000526020600020905b815481526020019060010190808311610faa575b505050505090506000815190506000610fe183518561231090919063ffffffff16565b905060008211156111b7578473ffffffffffffffffffffffffffffffffffffffff1663095ea7b330866040518363ffffffff1660e01b8152600401611027929190613523565b602060405180830381600087803b15801561104157600080fd5b505af1158015611055573d6000803e3d6000fd5b505050506040513d601f19601f8201168201806040525081019061107991906131d7565b506000600190505b8281116111b5576000600a600083815260200190815260200160002060020160009054906101000a900473ffffffffffffffffffffffffffffffffffffffff16905060008311156111a15760008773ffffffffffffffffffffffffffffffffffffffff166323b872dd3084876040518463ffffffff1660e01b815260040161110b93929190613174565b602060405180830381600087803b15801561112557600080fd5b505af1158015611139573d6000803e3d6000fd5b505050506040513d601f19601f8201168201806040525081019061115d91906131d7565b90508061119f576040517f08c379a00000000000000000000000000000000000000000000000000000000081526004016111969061362a565b60405180910390fd5b505b5080806111ad90613679565b915050611081565b505b505050505050565b60006111ca82610703565b602001519050919050565b6111dd612292565b60006004600a9054906101000a900460ff1660ff1667ffffffffffffffff81111561120b5761120a612955565b5b6040519080825280602002602001820160405280156112395781602001602082028036833780820191505090505b5090506000600c60008581526020019081526020016000208054905014156113185760005b6004600a9054906101000a900460ff1660ff168110156112ee5760018360058360405160200161128f929190613798565b6040516020818303038152906040528051906020012060001c6112b291906137f7565b6112bc9190613828565b8282815181106112cf576112ce61387e565b5b60200260200101818152505080806112e690613679565b91505061125e565b5080600c6000858152602001908152602001600020908051906020019061131692919061245b565b505b505050565b611325612292565b61132f6000612326565b565b611339612292565b600073ffffffffffffffffffffffffffffffffffffffff168273ffffffffffffffffffffffffffffffffffffffff1614156113a9576040517f08c379a00000000000000000000000000000000000000000000000000000000081526004016113a0906138f9565b60405180910390fd5b600081116113ec576040517f08c379a00000000000000000000000000000000000000000000000000000000081526004016113e390613154565b60405180910390fd5b600760009054906101000a900473ffffffffffffffffffffffffffffffffffffffff1673ffffffffffffffffffffffffffffffffffffffff166369328dec8383306040518463ffffffff1660e01b815260040161144b93929190613919565b600060405180830381600087803b15801561146557600080fd5b505af1158015611479573d6000803e3d6000fd5b505050505050565b6114896124a8565b6000600a60008481526020019081526020016000206040518060c00160405290816000820160009054906101000a900473ffffffffffffffffffffffffffffffffffffffff1673ffffffffffffffffffffffffffffffffffffffff1673ffffffffffffffffffffffffffffffffffffffff168152602001600182015481526020016002820160009054906101000a900473ffffffffffffffffffffffffffffffffffffffff1673ffffffffffffffffffffffffffffffffffffffff1673ffffffffffffffffffffffffffffffffffffffff168152602001600382015481526020016004820180546115799061326a565b80601f01602080910402602001604051908101604052809291908181526020018280546115a59061326a565b80156115f25780601f106115c7576101008083540402835291602001916115f2565b820191906000526020600020905b8154815290600101906020018083116115d557829003601f168201915b5050505050815260200160058201805461160b9061326a565b80601f01602080910402602001604051908101604052809291908181526020018280546116379061326a565b80156116845780601f1061165957610100808354040283529160200191611684565b820191906000526020600020905b81548152906001019060200180831161166757829003601f168201915b505050505081525050905080915050919050565b6060600c60008381526020019081526020016000208054806020026020016040519081016040528092919081815260200182805480156116f757602002820191906000526020600020905b8154815260200190600101908083116116e3575b50505050509050919050565b60008060009054906101000a900473ffffffffffffffffffffffffffffffffffffffff16905090565b611734612292565b600073ffffffffffffffffffffffffffffffffffffffff168373ffffffffffffffffffffffffffffffffffffffff1614156117a4576040517f08c379a000000000000000000000000000000000000000000000000000000000815260040161179b906138f9565b60405180910390fd5b600082116117e7576040517f08c379a00000000000000000000000000000000000000000000000000000000081526004016117de90613154565b60405180910390fd5b818373ffffffffffffffffffffffffffffffffffffffff166370a08231306040518263ffffffff1660e01b81526004016118219190612d70565b60206040518083038186803b15801561183957600080fd5b505afa15801561184d573d6000803e3d6000fd5b505050506040513d601f19601f82011682018060405250810190611871919061348a565b10156118b2576040517f08c379a00000000000000000000000000000000000000000000000000000000081526004016118a990613503565b60405180910390fd5b8273ffffffffffffffffffffffffffffffffffffffff1663095ea7b3600760009054906101000a900473ffffffffffffffffffffffffffffffffffffffff16846040518363ffffffff1660e01b815260040161190f929190613523565b602060405180830381600087803b15801561192957600080fd5b505af115801561193d573d6000803e3d6000fd5b505050506040513d601f19601f8201168201806040525081019061196191906131d7565b50600760009054906101000a900473ffffffffffffffffffffffffffffffffffffffff1673ffffffffffffffffffffffffffffffffffffffff1663e8eda9df848430856040518563ffffffff1660e01b81526004016119c3949392919061395f565b600060405180830381600087803b1580156119dd57600080fd5b505af11580156119f1573d6000803e3d6000fd5b50505050505050565b600073ffffffffffffffffffffffffffffffffffffffff168473ffffffffffffffffffffffffffffffffffffffff161415611a6a576040517f08c379a0000000000000000000000000000000000000000000000000000000008152600401611a61906139f0565b60405180910390fd5b611a7383612136565b611ab2576040517f08c379a0000000000000000000000000000000000000000000000000000000008152600401611aa99061307c565b60405180910390fd5b6000825111611af6576040517f08c379a0000000000000000000000000000000000000000000000000000000008152600401611aed90613a5c565b60405180910390fd5b6000815111611b3a576040517f08c379a0000000000000000000000000000000000000000000000000000000008152600401611b3190613ac8565b60405180910390fd5b6000611b526001600b5461224b90919063ffffffff16565b905080600b819055506040518060c001604052803373ffffffffffffffffffffffffffffffffffffffff1681526020014281526020018673ffffffffffffffffffffffffffffffffffffffff16815260200185815260200184815260200183815250600a600083815260200190815260200160002060008201518160000160006101000a81548173ffffffffffffffffffffffffffffffffffffffff021916908373ffffffffffffffffffffffffffffffffffffffff1602179055506020820151816001015560408201518160020160006101000a81548173ffffffffffffffffffffffffffffffffffffffff021916908373ffffffffffffffffffffffffffffffffffffffff160217905550606082015181600301556080820151816004019080519060200190611c8592919061250a565b5060a0820151816005019080519060200190611ca292919061250a565b509050507f65bdd31edb7fc2ded108a5c0f948d6a01aeabbaaa07c61debb9a578a9e6a62c5600b54604051611cd791906126b7565b60405180910390a15050505050565b611cee612292565b600073ffffffffffffffffffffffffffffffffffffffff168573ffffffffffffffffffffffffffffffffffffffff161415611d5e576040517f08c379a0000000000000000000000000000000000000000000000000000000008152600401611d55906139f0565b60405180910390fd5b60008411611da1576040517f08c379a0000000000000000000000000000000000000000000000000000000008152600401611d9890613b34565b60405180910390fd5b60008311611de4576040517f08c379a0000000000000000000000000000000000000000000000000000000008152600401611ddb90613ba0565b60405180910390fd5b6000825111611e28576040517f08c379a0000000000000000000000000000000000000000000000000000000008152600401611e1f90613a5c565b60405180910390fd5b6000815111611e6c576040517f08c379a0000000000000000000000000000000000000000000000000000000008152600401611e6390613ac8565b60405180910390fd5b6000611e84600160095461224b90919063ffffffff16565b9050806009819055506040518060e001604052803373ffffffffffffffffffffffffffffffffffffffff1681526020018773ffffffffffffffffffffffffffffffffffffffff168152602001428152602001868152602001858152602001848152602001838152506008600083815260200190815260200160002060008201518160000160006101000a81548173ffffffffffffffffffffffffffffffffffffffff021916908373ffffffffffffffffffffffffffffffffffffffff16021790555060208201518160010160006101000a81548173ffffffffffffffffffffffffffffffffffffffff021916908373ffffffffffffffffffffffffffffffffffffffff16021790555060408201518160020155606082015181600301556080820151816004015560a0820151816005019080519060200190611fc792919061250a565b5060c0820151816006019080519060200190611fe492919061250a565b509050507f646d794096491b3ee2fa1364d71e46229a60d31484c47665f7957c0b165d64c28160405161201791906126b7565b60405180910390a1505050505050565b61202f612292565b600160009054906101000a900473ffffffffffffffffffffffffffffffffffffffff1673ffffffffffffffffffffffffffffffffffffffff16635d3b1d30600354600160149054906101000a900467ffffffffffffffff1660048054906101000a900461ffff16600460009054906101000a900463ffffffff16600460069054906101000a900463ffffffff166040518663ffffffff1660e01b81526004016120dc959493929190613c1b565b602060405180830381600087803b1580156120f657600080fd5b505af115801561210a573d6000803e3d6000fd5b505050506040513d601f19601f8201168201806040525081019061212e919061348a565b600681905550565b6000806121786008600085815260200190815260200160002060040154600860008681526020019081526020016000206003015461224b90919063ffffffff16565b9050428111915050919050565b60065481565b612193612292565b600073ffffffffffffffffffffffffffffffffffffffff168173ffffffffffffffffffffffffffffffffffffffff161415612203576040517f08c379a00000000000000000000000000000000000000000000000000000000081526004016121fa90613ce0565b60405180910390fd5b61220c81612326565b50565b6005818154811061221f57600080fd5b906000526020600020016000915090505481565b61223b6123f2565b612246600954610703565b905090565b600081836122599190613828565b905092915050565b806005908051906020019061227792919061245b565b505050565b6000818361228a9190613d00565b905092915050565b61229a6123ea565b73ffffffffffffffffffffffffffffffffffffffff166122b8611703565b73ffffffffffffffffffffffffffffffffffffffff161461230e576040517f08c379a000000000000000000000000000000000000000000000000000000000815260040161230590613d80565b60405180910390fd5b565b6000818361231e9190613da0565b905092915050565b60008060009054906101000a900473ffffffffffffffffffffffffffffffffffffffff169050816000806101000a81548173ffffffffffffffffffffffffffffffffffffffff021916908373ffffffffffffffffffffffffffffffffffffffff1602179055508173ffffffffffffffffffffffffffffffffffffffff168173ffffffffffffffffffffffffffffffffffffffff167f8be0079c531659141344cd1fd0a4f28419497f9722a3daafe3b4186f6b6457e060405160405180910390a35050565b600033905090565b6040518060e00160405280600073ffffffffffffffffffffffffffffffffffffffff168152602001600073ffffffffffffffffffffffffffffffffffffffff16815260200160008152602001600081526020016000815260200160608152602001606081525090565b828054828255906000526020600020908101928215612497579160200282015b8281111561249657825182559160200191906001019061247b565b5b5090506124a49190612590565b5090565b6040518060c00160405280600073ffffffffffffffffffffffffffffffffffffffff16815260200160008152602001600073ffffffffffffffffffffffffffffffffffffffff1681526020016000815260200160608152602001606081525090565b8280546125169061326a565b90600052602060002090601f016020900481019282612538576000855561257f565b82601f1061255157805160ff191683800117855561257f565b8280016001018555821561257f579182015b8281111561257e578251825591602001919060010190612563565b5b50905061258c9190612590565b5090565b5b808211156125a9576000816000905550600101612591565b5090565b6000604051905090565b600080fd5b600080fd5b600073ffffffffffffffffffffffffffffffffffffffff82169050919050565b60006125ec826125c1565b9050919050565b6125fc816125e1565b811461260757600080fd5b50565b600081359050612619816125f3565b92915050565b6000819050919050565b6126328161261f565b811461263d57600080fd5b50565b60008135905061264f81612629565b92915050565b60008060006060848603121561266e5761266d6125b7565b5b600061267c8682870161260a565b935050602061268d86828701612640565b925050604061269e86828701612640565b9150509250925092565b6126b18161261f565b82525050565b60006020820190506126cc60008301846126a8565b92915050565b6000602082840312156126e8576126e76125b7565b5b60006126f684828501612640565b91505092915050565b612708816125e1565b82525050565b6000819050919050565b600061273361272e612729846125c1565b61270e565b6125c1565b9050919050565b600061274582612718565b9050919050565b60006127578261273a565b9050919050565b6127678161274c565b82525050565b6127768161261f565b82525050565b600081519050919050565b600082825260208201905092915050565b60005b838110156127b657808201518184015260208101905061279b565b838111156127c5576000848401525b50505050565b6000601f19601f8301169050919050565b60006127e78261277c565b6127f18185612787565b9350612801818560208601612798565b61280a816127cb565b840191505092915050565b600060e08301600083015161282d60008601826126ff565b506020830151612840602086018261275e565b506040830151612853604086018261276d565b506060830151612866606086018261276d565b506080830151612879608086018261276d565b5060a083015184820360a086015261289182826127dc565b91505060c083015184820360c08601526128ab82826127dc565b9150508091505092915050565b600060208201905081810360008301526128d28184612815565b905092915050565b600080604083850312156128f1576128f06125b7565b5b60006128ff8582860161260a565b925050602061291085828601612640565b9150509250929050565b60008115159050919050565b61292f8161291a565b82525050565b600060208201905061294a6000830184612926565b92915050565b600080fd5b7f4e487b7100000000000000000000000000000000000000000000000000000000600052604160045260246000fd5b61298d826127cb565b810181811067ffffffffffffffff821117156129ac576129ab612955565b5b80604052505050565b60006129bf6125ad565b90506129cb8282612984565b919050565b600067ffffffffffffffff8211156129eb576129ea612955565b5b602082029050602081019050919050565b600080fd5b6000612a14612a0f846129d0565b6129b5565b90508083825260208201905060208402830185811115612a3757612a366129fc565b5b835b81811015612a605780612a4c8882612640565b845260208401935050602081019050612a39565b5050509392505050565b600082601f830112612a7f57612a7e612950565b5b8135612a8f848260208601612a01565b91505092915050565b60008060408385031215612aaf57612aae6125b7565b5b6000612abd85828601612640565b925050602083013567ffffffffffffffff811115612ade57612add6125bc565b5b612aea85828601612a6a565b9150509250929050565b60008060408385031215612b0b57612b0a6125b7565b5b6000612b1985828601612640565b9250506020612b2a85828601612640565b9150509250929050565b600060208284031215612b4a57612b496125b7565b5b6000612b588482850161260a565b91505092915050565b600080600060608486031215612b7a57612b796125b7565b5b6000612b8886828701612640565b9350506020612b998682870161260a565b9250506040612baa86828701612640565b9150509250925092565b612bbd8161274c565b82525050565b6000602082019050612bd86000830184612bb4565b92915050565b600060c083016000830151612bf660008601826126ff565b506020830151612c09602086018261276d565b506040830151612c1c60408601826126ff565b506060830151612c2f606086018261276d565b5060808301518482036080860152612c4782826127dc565b91505060a083015184820360a0860152612c6182826127dc565b9150508091505092915050565b60006020820190508181036000830152612c888184612bde565b905092915050565b600081519050919050565b600082825260208201905092915050565b6000819050602082019050919050565b6000612cc8838361276d565b60208301905092915050565b6000602082019050919050565b6000612cec82612c90565b612cf68185612c9b565b9350612d0183612cac565b8060005b83811015612d32578151612d198882612cbc565b9750612d2483612cd4565b925050600181019050612d05565b5085935050505092915050565b60006020820190508181036000830152612d598184612ce1565b905092915050565b612d6a816125e1565b82525050565b6000602082019050612d856000830184612d61565b92915050565b600061ffff82169050919050565b612da281612d8b565b8114612dad57600080fd5b50565b600081359050612dbf81612d99565b92915050565b600080600060608486031215612dde57612ddd6125b7565b5b6000612dec8682870161260a565b9350506020612dfd86828701612640565b9250506040612e0e86828701612db0565b9150509250925092565b600080fd5b600067ffffffffffffffff821115612e3857612e37612955565b5b612e41826127cb565b9050602081019050919050565b82818337600083830152505050565b6000612e70612e6b84612e1d565b6129b5565b905082815260208101848484011115612e8c57612e8b612e18565b5b612e97848285612e4e565b509392505050565b600082601f830112612eb457612eb3612950565b5b8135612ec4848260208601612e5d565b91505092915050565b60008060008060808587031215612ee757612ee66125b7565b5b6000612ef58782880161260a565b9450506020612f0687828801612640565b935050604085013567ffffffffffffffff811115612f2757612f266125bc565b5b612f3387828801612e9f565b925050606085013567ffffffffffffffff811115612f5457612f536125bc565b5b612f6087828801612e9f565b91505092959194509250565b600080600080600060a08688031215612f8857612f876125b7565b5b6000612f968882890161260a565b9550506020612fa788828901612640565b9450506040612fb888828901612640565b935050606086013567ffffffffffffffff811115612fd957612fd86125bc565b5b612fe588828901612e9f565b925050608086013567ffffffffffffffff811115613006576130056125bc565b5b61301288828901612e9f565b9150509295509295909350565b600082825260208201905092915050565b7f50726f6d6f74696f6e2065787069726564210000000000000000000000000000600082015250565b600061306660128361301f565b915061307182613030565b602082019050919050565b6000602082019050818103600083015261309581613059565b9050919050565b7f4e6f742070726f6d6f74696f6e20746f6b656e00000000000000000000000000600082015250565b60006130d260138361301f565b91506130dd8261309c565b602082019050919050565b60006020820190508181036000830152613101816130c5565b9050919050565b7f496e76616c696420616d6f756e74000000000000000000000000000000000000600082015250565b600061313e600e8361301f565b915061314982613108565b602082019050919050565b6000602082019050818103600083015261316d81613131565b9050919050565b60006060820190506131896000830186612d61565b6131966020830185612d61565b6131a360408301846126a8565b949350505050565b6131b48161291a565b81146131bf57600080fd5b50565b6000815190506131d1816131ab565b92915050565b6000602082840312156131ed576131ec6125b7565b5b60006131fb848285016131c2565b91505092915050565b60006060820190506132196000830186612d61565b61322660208301856126a8565b61323360408301846126a8565b949350505050565b7f4e487b7100000000000000000000000000000000000000000000000000000000600052602260045260246000fd5b6000600282049050600182168061328257607f821691505b602082108114156132965761329561323b565b5b50919050565b60006040820190506132b16000830185612d61565b6132be6020830184612d61565b9392505050565b7f50726f6d6f74696f6e207374696c6c2072756e6e696e67210000000000000000600082015250565b60006132fb60188361301f565b9150613306826132c5565b602082019050919050565b6000602082019050818103600083015261332a816132ee565b9050919050565b7f496e76616c696420616d6f756e74210000000000000000000000000000000000600082015250565b6000613367600f8361301f565b915061337282613331565b602082019050919050565b600060208201905081810360008301526133968161335a565b9050919050565b7f4e6f7420656e6f756768207374616b6564210000000000000000000000000000600082015250565b60006133d360128361301f565b91506133de8261339d565b602082019050919050565b60006020820190508181036000830152613402816133c6565b9050919050565b7f4e6f7468696e67207374616b6564210000000000000000000000000000000000600082015250565b600061343f600f8361301f565b915061344a82613409565b602082019050919050565b6000602082019050818103600083015261346e81613432565b9050919050565b60008151905061348481612629565b92915050565b6000602082840312156134a05761349f6125b7565b5b60006134ae84828501613475565b91505092915050565b7f4e6f7420656e6f7567682062616c616e63652100000000000000000000000000600082015250565b60006134ed60138361301f565b91506134f8826134b7565b602082019050919050565b6000602082019050818103600083015261351c816134e0565b9050919050565b60006040820190506135386000830185612d61565b61354560208301846126a8565b9392505050565b7f50726f6d6f74696f6e206973207374696c6c2072756e6e696e67210000000000600082015250565b6000613582601b8361301f565b915061358d8261354c565b602082019050919050565b600060208201905081810360008301526135b181613575565b9050919050565b7f4661696c656420746f2073656e6420616d6f756e7420666f72207472616e736660008201527f65722e0000000000000000000000000000000000000000000000000000000000602082015250565b600061361460238361301f565b915061361f826135b8565b604082019050919050565b6000602082019050818103600083015261364381613607565b9050919050565b7f4e487b7100000000000000000000000000000000000000000000000000000000600052601160045260246000fd5b60006136848261261f565b91507fffffffffffffffffffffffffffffffffffffffffffffffffffffffffffffffff8214156136b7576136b661364a565b5b600182019050919050565b600081549050919050565b60008190508160005260206000209050919050565b60008160001c9050919050565b6000819050919050565b600061370c613707836136e2565b6136ef565b9050919050565b600061371f82546136f9565b9050919050565b6000600182019050919050565b600061373e826136c2565b6137488185612c9b565b9350613753836136cd565b8060005b8381101561378b5761376882613713565b6137728882612cbc565b975061377d83613726565b925050600181019050613757565b5085935050505092915050565b600060408201905081810360008301526137b28185613733565b90506137c160208301846126a8565b9392505050565b7f4e487b7100000000000000000000000000000000000000000000000000000000600052601260045260246000fd5b60006138028261261f565b915061380d8361261f565b92508261381d5761381c6137c8565b5b828206905092915050565b60006138338261261f565b915061383e8361261f565b9250827fffffffffffffffffffffffffffffffffffffffffffffffffffffffffffffffff038211156138735761387261364a565b5b828201905092915050565b7f4e487b7100000000000000000000000000000000000000000000000000000000600052603260045260246000fd5b7f41737365742068617320746f206265206e6f6e207a65726f2061646472657373600082015250565b60006138e360208361301f565b91506138ee826138ad565b602082019050919050565b60006020820190508181036000830152613912816138d6565b9050919050565b600060608201905061392e6000830186612d61565b61393b60208301856126a8565b6139486040830184612d61565b949350505050565b61395981612d8b565b82525050565b60006080820190506139746000830187612d61565b61398160208301866126a8565b61398e6040830185612d61565b61399b6060830184613950565b95945050505050565b7f43616e2774206265207a65726f20616464726573730000000000000000000000600082015250565b60006139da60158361301f565b91506139e5826139a4565b602082019050919050565b60006020820190508181036000830152613a09816139cd565b9050919050565b7f5469746c652063616e277420626520656d707479000000000000000000000000600082015250565b6000613a4660148361301f565b9150613a5182613a10565b602082019050919050565b60006020820190508181036000830152613a7581613a39565b9050919050565b7f4465736372697074696f6e2063616e277420626520656d707479000000000000600082015250565b6000613ab2601a8361301f565b9150613abd82613a7c565b602082019050919050565b60006020820190508181036000830152613ae181613aa5565b9050919050565b7f53746172742074696d65206d75737420626520706f7369746976650000000000600082015250565b6000613b1e601b8361301f565b9150613b2982613ae8565b602082019050919050565b60006020820190508181036000830152613b4d81613b11565b9050919050565b7f4c656e676874206d75737420626520706f736974697665000000000000000000600082015250565b6000613b8a60178361301f565b9150613b9582613b54565b602082019050919050565b60006020820190508181036000830152613bb981613b7d565b9050919050565b6000819050919050565b613bd381613bc0565b82525050565b600067ffffffffffffffff82169050919050565b613bf681613bd9565b82525050565b600063ffffffff82169050919050565b613c1581613bfc565b82525050565b600060a082019050613c306000830188613bca565b613c3d6020830187613bed565b613c4a6040830186613950565b613c576060830185613c0c565b613c646080830184613c0c565b9695505050505050565b7f4f776e61626c653a206e6577206f776e657220697320746865207a65726f206160008201527f6464726573730000000000000000000000000000000000000000000000000000602082015250565b6000613cca60268361301f565b9150613cd582613c6e565b604082019050919050565b60006020820190508181036000830152613cf981613cbd565b9050919050565b6000613d0b8261261f565b9150613d168361261f565b925082821015613d2957613d2861364a565b5b828203905092915050565b7f4f776e61626c653a2063616c6c6572206973206e6f7420746865206f776e6572600082015250565b6000613d6a60208361301f565b9150613d7582613d34565b602082019050919050565b60006020820190508181036000830152613d9981613d5d565b9050919050565b6000613dab8261261f565b9150613db68361261f565b925082613dc657613dc56137c8565b5b82820490509291505056fea264697066735822122086d1aa5bd7352d4b528d50a3a05d45320c40e9e17dad6b75188de5d96c52ad5a64736f6c63430008090033",
  "linkReferences": {},
  "deployedLinkReferences": {}
}